:100000000C94CE000C94F6000C94F6000C94F600C0
:100010000C94F6000C94F6000C94F6000C94F60088
:100020000C94F6000C94F6000C94E8050C9457061A
:100030000C94F6000C94F6000C94F6000C94F60068
:100040000C94F6000C94F6000C94F6000C94F60058
:100050000C94F6000C94F6000C94F6000C948908AD
:100060000C94F6000C94F6000C94F6000C94F60038
:100070000C94F6000C94F6000C94F6000C94F60028
:100080000C94F6000C94F6000C94F6000C94F60018
:100090000C94F6000C94F6000C94F6000C94F60008
:1000A0000C94F6000C94F6000C94F600000000008E
:1000B000240027002A002D003000080B0002020255
:1000C00000000904000001020200000524001001E4
:1000D0000524010101042402060524060001070588
:1000E000810310004009040100020A000000070516
:1000F00002024000000705830240000004030904D7
:1001000012010002EF0201404F1B069200010102A2
:100110000301537061726B46756E00537061726BB0
:1001200046756E2050726F204D6963726F0000003B
:10013000000200090F0000030401000C0000000091
:1001400000000000000000000000000004080201A0
:100150001040804010204080408008020401804010
:1001600020100201108010204040200000000025D7
:100170000028002B002E00310004040404040304B2
:100180000502020202040302020202060606060635
:1001900006040402020204040609050B11241FBE12
:1001A000CFEFDAE0DEBFCDBF11E0A0E0B1E0E2ECDE
:1001B000F8E102C005900D92AC32B107D9F721E009
:1001C000ACE2B1E001C01D92A43BB207E1F710E040
:1001D000CDECD0E004C02197FE010E94290BCC3C5D
:1001E000D107C9F70E947E090C94540C0C940000AE
:1001F000282F30E0F901E25DFE4F9491F901E45BB4
:10020000FE4F849127583E4FF9012491222309F48F
:100210002EC09923E9F091509F30D0F4E92FF0E0FF
:10022000EC5EFE4F0C94290B400144012301380180
:100230003C0128012801280147014D0151015501C8
:100240005B0128015F01909180009F77909380006F
:10025000E22FF0E0EE0FFF1FE559FE4FA591B4919C
:100260009FB7F894EC9180958E238C939FBF08954F
:10027000909180009F7DEACF90918000977FE6CF9C
:1002800094B59F7794BDE4CF94B59F7DFBCF9091BB
:1002900090009F7790939000DBCF909190009F7D8E
:1002A000F9CF90919000977FF5CF9091C0009F7704
:1002B0009093C000CDCF9091C0009F7DF9CF9091D9
:1002C000C200977F9093C200C3CF8F929F92AF924C
:1002D000BF92CF92DF92EF92FF92CF9320919D0138
:1002E00030919E0182179307E8F54B01AA24BB24A5
:1002F000C82DC52ED62EE72EFF24BC2DA42F20916D
:10030000A201222361F0829E40011124C92D2C9D5F
:1003100060011124BD2D249FF0011124AF2FE09125
:10032000A801E090A301F090A4013091A501E3138E
:1003300023C09C01220F331F820F931F8E0D9F1D20
:10034000E091A501E80FF92FF11DC083E091A6010E
:10035000E80FF92FF11DB0832091A701820F911DA5
:10036000FC01A083CF91FF90EF90DF90CF90BF90E2
:10037000AF909F908F900895880F991F880F991FB5
:100380008E0D9F1D472F552766277727222349F07B
:1003900030E0249F7001259FF00C349FF00C112455
:1003A0004F2DE80FF92FF11D4083CACF6091A201B4
:1003B0006B3029F12091A3013091A4016150C9F063
:1003C00070E08FEF9AE00E94150BF90140919F01B8
:1003D0005091A001CF01821B930B8417950760F405
:1003E0004081469FC001479F900D11249083319614
:1003F000EDCF70E060E0E9CF8BE08093A20108953B
:10040000FC0180914A01882311F13FB7F89482E002
:100410008093E9002091F200822F90E018161906CF
:1004200014F481E090E0882339F0289844E6409362
:1004300049014091F1004083222339F02091F200DC
:10044000211103C02BE62093E8003FBF08958FEFF2
:100450009FEF08952FB7F89483E08093E90090917F
:10046000E800892F807295FF04C09091F20080E42B
:10047000891B2FBF08958091410181110DC082E039
:1004800080933D0184E080933E01109240011092E0
:100490003F0181E0809341018DE391E00895CF9386
:1004A000DF931F92CDB7DEB76983DC01ED91FC913C
:1004B0000280F381E02D41E050E0BE016F5F7F4F8D
:1004C00009950F90DF91CF91089583E08093E90023
:1004D0008091F200882319F08AE38093E800089560
:1004E0000E942A0290E00895CF93DF931F92CDB728
:1004F000DEB7FC018485958597FD08C02FEF3FEF9F
:10050000358724870F90DF91CF910895CE01019612
:100510000E940002019719F4898190E0F3CF8FEFD8
:100520009FEFF0CF0F931F93CF93DF931F92CDB721
:10053000DEB78C01FC018485958597FF0BC0CE0149
:1005400001960E940002019771F4898190E0F80100
:1005500095878487F801848595850F90DF91CF91E9
:100560001F910F9108958FEF9FEFF1CFFC018485CC
:10057000958597FD0BC09FB7F89482E08093E900C2
:100580008091F2009FBF90E0019608959FB7F89484
:1005900082E08093E9008091F2009FBF90E008958F
:1005A0004091370150913801209135013091360149
:1005B00042175307B4F49091E8009570E1F39091DD
:1005C000E80092FD19C08093F1008091370190916D
:1005D000380101968F739927892B19F48EEF809338
:1005E000E80080913701909138010196909338018D
:1005F0008093370181E0089580E00895DF92EF92C3
:10060000FF920F931F93CF93DF93D82E8A01EB01B4
:100610007B01E40EF51ECE15DF0559F0D7FE12C0A2
:10062000FE0184910E94D00221968111F4CF0FEF38
:100630001FEFC801DF91CF911F910F91FF90EF90B5
:10064000DF9008958881EECF0F931F93CF93DF93B0
:100650001F92CDB7DEB782E0898342E450E06AEBB7
:1006600070E080E80E94FE020E943B02DC011296CC
:100670000D911C910115110589F0D801ED91FC91A6
:100680000280F381E02DBE016F5F7F4FC8010995A5
:1006900097FD04C0F80100851185ECCF89810F908A
:1006A000DF91CF911F910F910895615030F020910B
:1006B000F100FC0120830196F8CF289884E680930E
:1006C00049010895CF93DF9390E0FC01E45BFE4F76
:1006D000249187589E4FFC0184918823D1F090E0AB
:1006E000880F991FFC01E455FF4FA591B491FC01BF
:1006F000E559FE4FC591D49161110EC09FB7F89492
:100700008C91E22FE0958E238C932881E223E8835D
:100710009FBFDF91CF9108958FB7F894EC91E22BB2
:10072000EC938FBFF6CF3FB7F89480913101909151
:100730003201A0913301B091340126B5A89B05C0C8
:100740002F3F19F00196A11DB11D3FBFBA2FA92F50
:10075000982F8827BC01CD01620F711D811D911D4D
:1007600042E0660F771F881F991F4A95D1F70895B9
:100770000F931F93CF93DF93CDB7DEB729970FB6B3
:10078000F894DEBF0FBECDBF8091A3019091A4016C
:10079000892B09F467C00E9493030091A90110916D
:1007A000AA012091AB013091AC01601B710B820B4F
:1007B000930B6C3271408105910568F3F894809138
:1007C0009F019091A0019A838983E091A301F09108
:1007D000A401DF0111968081898790919B01E091AE
:1007E000AD01F091AE018091AF01992309F445C0AC
:1007F0009081982B98879081809589238F838F8112
:100800008C8388E08B8358856F8149853B812C815F
:1008100089819A81508347FD252F3A952083262F81
:1008200039F0441F00C000006083000000C0F2CF18
:1008300038E04D9160830000019761F7F093AE01BD
:10084000E093AD0149873B832C839A838983789415
:100850000E9493036093A9017093AA018093AB0156
:100860009093AC0129960FB6F894DEBF0FBECDBFB2
:10087000DF91CF911F910F9108959081982B9887C8
:100880009081809589238F838F818E8388E08D83EB
:1008900058856F8149853D812E8189819A81508358
:1008A00047FD252F00C000C0208300C000C000C04D
:1008B00000C000C060830000262F3A9541F0441F1D
:1008C000000000C000C000C000C000C0E8CF38E099
:1008D0004D9100C0608300C0019709F7F093AE010D
:1008E000E093AD0149873D832E83AFCF8F929F92D6
:1008F000AF92BF92CF92DF92EF92FF926B017C0199
:100900000E9493034B015C01C114D104E104F10482
:10091000B9F00E949303681979098A099B09683E16
:1009200073408105910580F321E0C21AD108E108E6
:10093000F10888EE880E83E0981EA11CB11CE4CF5C
:10094000FF90EF90DF90CF90BF90AF909F908F90EF
:100950000895CF92DF92EF92FF92CF93DF936B01D6
:100960007C01D0E0C0E080919D0190919E01C8176C
:10097000D90778F4B701A601CE010E9465010E9453
:10098000B80362E370E080E090E00E947604219674
:10099000EACFDF91CF91FF90EF90DF90CF90089555
:1009A0008F929F92AF92BF92EF92FF920F931F93FD
:1009B000CF93DF934B015C018AE0E82EF12CD0E06D
:1009C000C0E010E000E080919D0190919E01081729
:1009D000190760F40E94D601B501A401CE01800F71
:1009E000911F0E9465010D5F1F4FEDCF0E94B8035C
:1009F00062E370E080E090E00E94760410E000E0A6
:100A000080919D0190919E010817190768F40E943A
:100A1000D60140E050E0BA01CE01800F911F0E9444
:100A200065010D5F1F4FECCF2196C330D10549F60C
:100A300081E0E81AF10819F6DF91CF911F910F912B
:100A4000FF90EF90BF90AF909F908F9008958F92FE
:100A50009F92AF92BF92CF92DF92EF92FF920F934D
:100A60001F93CF93DF936C017B018A0180910B016F
:100A7000882309F45CC080914A01882309F457C097
:100A800080913C0180FF05C08091E00082608093EE
:100A9000E000E801B12C8AEFA82E93E0892E2AE32A
:100AA000922E209711F4BB20D9F10E942A028111C5
:100AB0000AC0AA94AA20D9F161E070E080E090E039
:100AC0000E947604EECF8C171D0611F00CF08C2FCF
:100AD0009FB7F8948092E9002091E80025FD02C0BC
:100AE0009FBFDFCF282F30E0C21BD30BF70181500F
:100AF00020F041914093F100FACFE20EF31EBB20AB
:100B000021F09092E800B12CEBCF8091E80085FDB8
:100B1000E7CF9092E800BB24B394209709F3F3CF7A
:100B20005D9884E680933B01101611063CF081E04D
:100B300090E0F6019383828310E000E0C801DF912A
:100B4000CF911F910F91FF90EF90DF90CF90BF90CA
:100B5000AF909F908F900895282F2095253598F479
:100B6000822F880F880F622F681B9FEF960F692FC7
:100B700070E090E080E0CB0177276627322F330FBB
:100B8000230F622B08952A3A88F42555622F660FA9
:100B9000620F70E090E080E0982F872F762F662715
:100BA000322F330F330F231B2150EBCF2A5A822FC2
:100BB000880F880F322F381B3150622F660F620F5B
:100BC00070E090E080E0CB0177276627732B0895D3
:100BD0001F920F920FB60F9211248F939F938091C3
:100BE000E1009091E100937F9093E10083FF0FC0BB
:100BF0001092E90091E09093EB001092EC0092E3E8
:100C00009093ED0010924A0198E09093F00082FFDB
:100C100022C093E09093E9009091F200992319F09B
:100C20009AE39093E80090913B01992341F09091D1
:100C30003B01915090933B01911101C05D9A9091BD
:100C40004901992341F090914901915090934901B4
:100C5000911101C0289A84FF18C08091E2008E7E15
:100C600081608093E2008091E1008F7E8093E100BB
:100C700080913C018E7E806180933C019F918F9199
:100C80000F900FBE0F901F90189580FFF7CF8091A7
:100C9000E2008E7E80618093E2008091E1008E7E92
:100CA0008093E10080913C018E7E8160E5CF1F92B0
:100CB0000F920FB60F921124CF92DF92EF92FF9214
:100CC0000F931F932F933F934F935F936F937F9354
:100CD0008F939F93AF93BF93EF93FF93CF93DF9344
:100CE000CDB7DEB76C97DEBFCDBF1092E900809123
:100CF000E80083FF25C068E0CE0145960E945503B9
:100D000082EF8093E8008D8987FF39C09091E800D9
:100D100090FFFCCF982F907609F034C19E894F89BF
:100D2000588D2F89F88C911131C0803861F58091F0
:100D30003A018093F1001092F1008EEF8093E80069
:100D40006C960FB6F894DEBF0FBECDBFDF91CF918A
:100D5000FF91EF91BF91AF919F918F917F916F9193
:100D60005F914F913F912F911F910F91FF90EF90C5
:100D7000DF90CF900F900FBE0F901F9018959EEFB1
:100D80009093E800C7CF1092F100D5CF913059F47D
:100D90008111D3CF4130510581F680913A018D7F89
:100DA00080933A01CACF933049F48111C6CF4130C4
:100DB000510519F680913A018260F2CF953041F4E5
:100DC0008091E80080FFFCCF20682093E300B5CF3E
:100DD000963009F0A9C00B8D1C8D22E01092E9001D
:100DE0001092380110923701F2122EC01092360183
:100DF000109235010E9424031F8299E09983FA82A0
:100E000091E09E8390EA98879AEF99872091370125
:100E100030913801275F3F4F3C832B838D831092A5
:100E2000E9001092380110923701109336010093B7
:100E3000350149E050E0BE016F5F7F4F80E00E94C6
:100E4000FE020E94240379CF1093360100933501EE
:100E50000E943B02DC0112960D911C9101151105B7
:100E600009F451C1D801ED91FC910480F581E02D88
:100E7000BE016B5E7F4FC8010995009709F03EC126
:100E8000F80100851185EACFF3E0FF120EC08F89CB
:100E9000882309F440C0823061F440E862E18BE1CC
:100EA00091E00E94D308811148CF81E28093EB004A
:100EB00047CF813029F440E868E082E191E0F1CF4A
:100EC000833099F70E943B02DC011296ED90FC9072
:100ED0008E010F5F1F4F6801E114F10479F0D70113
:100EE000ED91FC910680F781E02DB801C7010995CD
:100EF000080F111DF701E084F184EECFD8011C9298
:100F0000F60101900020E9F73197BF016C197D09C6
:100F100040E0C601C6CF6CEF70E0FB01449150E0A9
:100F200080E80E94FE0209CF973009F4BECF9830C6
:100F300021F481E08093F10000CF993009F0FDCEDB
:100F4000837009F0B2CFE3E1F1E081E031E096E3B4
:100F50002191222371F08093E9003093EB00DF01AF
:100F600011972C912093EC009093ED008F5F8730C8
:100F700079F78EE78093EA001092EA008F898093D8
:100F80004A01DBCE8B8D9C8D1092E90010923801C6
:100F9000109237019093360180933501898D81112C
:100FA00092C08E899D89913A49F4813209F07DCFB2
:100FB00047E050E064E071E080E0B3CF913209F0A7
:100FC00074CF833269F48F89988DB0E0A0E080936C
:100FD000000190930101A0930201B0930301ADCEF3
:100FE000803269F48091E80082FFFCCF67E084E002
:100FF00091E00E9455038BEF8093E8009ECE8232F1
:1010000009F09BCE8F8980930B01EEEFFFE785916E
:1010100094918B3F9C4D51F1E0E0F8E08091040108
:1010200090910501A0910601B0910701803B944089
:10103000A105B105F1F480910B0180FD1AC0EE3FCE
:101040008AE0F80789F587E797E7918380838091A5
:1010500060008093390188E19BE00FB6F894A89571
:10106000809360000FBE9093600067CEEEEFFAE0D1
:10107000D5CF808191818737974709F05ECEA895BB
:101080008091600088618093600080913901809335
:101090006000EE3F2AE0F20789F08091FE0A90910D
:1010A000FF0A9183808349CE808191818737980799
:1010B00051F29093FF0A8093FE0AC5CF1092FF0A67
:1010C0001092FE0A3ACE0E943B02DC0112960D916C
:1010D0001C910115110509F4E8CED801ED91FC91A0
:1010E0000190F081E02DBE016B5E7F4FC801099534
:1010F000811123CEF80100851185EBCF1816190652
:101100000CF41BCED2CEF1E0FF12BECE60E071E057
:1011100004CF1F920F920FB60F9211242F933F937B
:101120008F939F93AF93BF9380912D0190912E0148
:10113000A0912F01B091300130912C0123E0230FB9
:101140002D3758F50196A11DB11D20932C018093D8
:101150002D0190932E01A0932F01B0933001809127
:10116000310190913201A0913301B0913401019687
:10117000A11DB11D8093310190933201A0933301E1
:10118000B0933401BF91AF919F918F913F912F9177
:101190000F900FBE0F901F90189526E8230F029610
:1011A000A11DB11DD2CFEF92FF920F931F93CF934A
:1011B000DF93F82E192FE62E042F81E0860F880F7B
:1011C0000E94D00283E00E94D002CF2DD12FEC0EDE
:1011D000FD2EF11CCE15DF05B9F007FF13C0FE018F
:1011E00084910E94D002182F80E00E94D0028123B7
:1011F00021968111EFCFDF91CF911F910F91FF9039
:10120000EF9008958881EDCF81E0F5CF10924E01E7
:1012100010924D0188EE93E0A0E0B0E080934F0182
:1012200090935001A0935101B09352018DE191E050
:1012300090934C0180934B018FEF9FEF9093580157
:101240008093570110929C011092A2011092A90163
:101250001092AA011092AB011092AC0181E0809330
:10126000A8018093A5011092A60192E09093A70196
:1012700080939B018BE190E09093A00180939F016C
:101280000E942F0B9093A4018093A301009769F112
:101290002BE1FC0111922A95E9F789E090E0909307
:1012A0009E0180939D0186E08093A10180919C0125
:1012B000882339F061E086E00E94620386E00E94A4
:1012C000F800EFE7F1E0E491F0E0EE0FFF1FE559E1
:1012D000FE4F859194919093AE018093AD01E2E52C
:1012E000F1E0E491E093AF0108951092A001109213
:1012F0009F0110929E0110929D01D5CF789484B5E4
:10130000826084BD84B5816084BD85B5826085BD01
:1013100085B5816085BD80916E00816080936E008F
:101320001092810080918100826080938100809181
:101330008100816080938100809180008160809332
:101340008000809191008260809391008091910053
:1013500081608093910080919000816080939000E3
:101360008091C10084608093C1008091C10082603F
:101370008093C1008091C10081608093C100809101
:10138000C30081608093C3008091C000826080931D
:10139000C0008091C20081608093C20080917A0079
:1013A000846080937A0080917A00826080937A00D2
:1013B00080917A00816080937A0080917A008068C1
:1013C00080937A0010924A0110923A0110923C01E7
:1013D0008091D70081608093D70080EA8093D80005
:1013E00089B5806189BD89B5826089BD09B400FE77
:1013F000FDCF61E070E080E090E00E947604809193
:10140000D8008F7C80618093D8008091E000807F3D
:101410008093E0008091E1008E7E8093E1008DE07A
:101420008093E200559A209A8091A10187FD07C020
:1014300061E00E9462038091A1010E94F80081E0B6
:1014400080939C010E94B803EE24EA94F12C90E072
:10145000C92E90E0D92E0E94D60160E070E08FEF97
:1014600090E00E94A90460E07FEF80E090E00E949D
:10147000A9046FEF70E080E090E00E94A9046FEF94
:101480007FEF8FEF90E00E94A9046FEF7FEF8FEF67
:1014900090E00E94D00460E070E08FEF90E00E9446
:1014A000D0046FEF70E080E090E00E94D00460E034
:1014B0007FEF80E090E00E94D00410E000E0D0E0F8
:1014C000C0E080919D0190919E01C817D90768F4F2
:1014D0000E94D6018C2F800F0E94AC05AB01BC018D
:1014E000CE010E9465012196ECCF0E94B8036AE00C
:1014F00070E080E090E00E9476040F5F1F4F0115BE
:1015000081E01807E1F6D0E0C0E0B12CA12C10E09A
:1015100000E080919D0190919E0108171907B0F499
:101520000E94D60160919D0170919E01C5010E94AB
:10153000150B8C2F860F0E94AC05AB01BC01C801B6
:101540000E9465010F5F1F4FB394E3CF0E94B80361
:1015500065E070E080E090E00E9476042196C1157D
:1015600085E0D80791F6B12CA12CD0E0C0E010E0C6
:1015700000E080919D0190919E0108171907A0F449
:101580000E94D601C501800F911FB7010E94150B63
:101590000E94AC05AB01BC01CE01800F911F0E94DF
:1015A00065010D5F1F4FE5CF0E94B80362E370E055
:1015B00080E090E00E94760410E000E080919D01C0
:1015C00090919E010817190768F40E94D60140E027
:1015D00050E0BA01CE01800F911F0E9465010D5F9E
:1015E0001F4FECCF2196C330D10509F68FEFA81A13
:1015F000B80AA11481E0B80609F0B7CFC114D1042C
:1016000009F429CF0E94000026CF8091A301909178
:10161000A401009711F00E94CB0B8091A10187FDDE
:1016200003C060E00C9462030895AA1BBB1B51E148
:1016300007C0AA1FBB1FA617B70710F0A61BB70B42
:10164000881F991F5A95A9F780959095BC01CD01E7
:101650000895EE0FFF1F0590F491E02D09940F936C
:101660001F93CF93DF938230910510F482E090E0D6
:10167000E091B201F091B30130E020E0B0E0A0E0F1
:10168000309799F42115310509F44AC0281B390B0C
:1016900024303105D8F58A819B816115710589F166
:1016A000FB0193838283FE0111C04081518102813D
:1016B000138148175907E0F04817590799F4109714
:1016C00061F012960C93129713961C933296CF01E9
:1016D000DF91CF911F910F9108950093B201109364
:1016E000B301F4CF2115310551F04217530738F0FB
:1016F000A901DB019A01BD01DF01F801C1CFEF01B2
:10170000F9CF9093B3018093B201CDCFFE01E20FE8
:10171000F31F819391932250310939832883D7CFC6
:101720002091B0013091B101232B41F420910E01A1
:1017300030910F013093B1012093B00120910C0141
:1017400030910D012115310541F42DB73EB740917F
:10175000100150911101241B350BE091B001F09163
:10176000B101E217F307A0F42E1B3F0B281739072E
:1017700078F0AC014E5F5F4F2417350748F04E0FED
:101780005F1F5093B1014093B001819391939FCF1C
:10179000F0E0E0E09CCFCF93DF930097E9F0FC010D
:1017A000329713821282A091B201B091B301ED0180
:1017B00030E020E01097A1F420813181820F931F47
:1017C0002091B0013091B1012817390709F061C0AB
:1017D000F093B101E093B001DF91CF910895EA0158
:1017E000CE17DF07E8F54A815B819E01411551055F
:1017F000B1F7E901FB83EA8349915991C40FD51FE1
:10180000EC17FD0761F4808191810296840F951F8A
:10181000E90199838883828193819B838A83F0E0A5
:10182000E0E012968D919C9113970097B9F52D9158
:101830003C911197CD010296820F931F2091B00128
:101840003091B1012817390739F6309751F51092C8
:10185000B3011092B201B093B101A093B001BCCF1B
:10186000D383C28340815181840F951FC817D90744
:1018700061F44E5F5F4F88819981480F591F5183F2
:1018800040838A819B81938382832115310509F0EE
:10189000B0CFF093B301E093B2019ECFFD01DC0124
:1018A000C0CF13821282D7CF10E0CDECD0E004C0BD
:1018B000FE010E94290B2196CE3CD107C9F7F8946E
:0218C000FFCF58
:1018C200FFFFFFFF00E10000000000000000B40184
:1018D200800000C18081000000000000004F02274C
:0C18E2000570026502B60274029202005A
:00000001FF
